{
  "contractName": "StorageFactory",
  "abi": [
    {
      "inputs": [
        {
          "internalType": "address",
          "name": "_implementation",
          "type": "address"
        }
      ],
      "stateMutability": "nonpayable",
      "type": "constructor"
    },
    {
      "anonymous": false,
      "inputs": [
        {
          "indexed": false,
          "internalType": "address",
          "name": "_clonedContract",
          "type": "address"
        }
      ],
      "name": "ClonedContract",
      "type": "event"
    },
    {
      "inputs": [],
      "name": "admin",
      "outputs": [
        {
          "internalType": "address",
          "name": "",
          "type": "address"
        }
      ],
      "stateMutability": "view",
      "type": "function",
      "constant": true
    },
    {
      "inputs": [
        {
          "internalType": "uint256",
          "name": "",
          "type": "uint256"
        }
      ],
      "name": "clonedContracts",
      "outputs": [
        {
          "internalType": "address",
          "name": "",
          "type": "address"
        }
      ],
      "stateMutability": "view",
      "type": "function",
      "constant": true
    },
    {
      "inputs": [],
      "name": "implementation",
      "outputs": [
        {
          "internalType": "address",
          "name": "",
          "type": "address"
        }
      ],
      "stateMutability": "view",
      "type": "function",
      "constant": true
    },
    {
      "inputs": [],
      "name": "createStorage",
      "outputs": [],
      "stateMutability": "nonpayable",
      "type": "function"
    },
    {
      "inputs": [
        {
          "internalType": "uint256",
          "name": "i",
          "type": "uint256"
        }
      ],
      "name": "getAddress",
      "outputs": [
        {
          "internalType": "address",
          "name": "",
          "type": "address"
        }
      ],
      "stateMutability": "view",
      "type": "function",
      "constant": true
    }
  ],
  "bytecode": "0x608060405234801561001057600080fd5b5060405161058a38038061058a8339818101604052810190610032919061011c565b80600160006101000a81548173ffffffffffffffffffffffffffffffffffffffff021916908373ffffffffffffffffffffffffffffffffffffffff160217905550336000806101000a81548173ffffffffffffffffffffffffffffffffffffffff021916908373ffffffffffffffffffffffffffffffffffffffff16021790555050610149565b600080fd5b600073ffffffffffffffffffffffffffffffffffffffff82169050919050565b60006100e9826100be565b9050919050565b6100f9816100de565b811461010457600080fd5b50565b600081519050610116816100f0565b92915050565b600060208284031215610132576101316100b9565b5b600061014084828501610107565b91505092915050565b610432806101586000396000f3fe608060405234801561001057600080fd5b50600436106100575760003560e01c80635c60da1b1461005c578063b93f9b0a1461007a578063f851a440146100aa578063fb82480f146100c8578063fb971d01146100f8575b600080fd5b610064610102565b604051610071919061034a565b60405180910390f35b610094600480360381019061008f91906103a0565b610128565b6040516100a1919061034a565b60405180910390f35b6100b2610170565b6040516100bf919061034a565b60405180910390f35b6100e260048036038101906100dd91906103a0565b610194565b6040516100ef919061034a565b60405180910390f35b6101006101d3565b005b600160009054906101000a900473ffffffffffffffffffffffffffffffffffffffff1681565b60006002828154811061013e5761013d6103cd565b5b9060005260206000200160009054906101000a900473ffffffffffffffffffffffffffffffffffffffff169050919050565b60008054906101000a900473ffffffffffffffffffffffffffffffffffffffff1681565b600281815481106101a457600080fd5b906000526020600020016000915054906101000a900473ffffffffffffffffffffffffffffffffffffffff1681565b6000610200600160009054906101000a900473ffffffffffffffffffffffffffffffffffffffff1661029f565b90507f4e1d29e2852465a104ae5b46a21386067094efd4c78e8fca5fbd0f73155f83ec81604051610231919061034a565b60405180910390a16002819080600181540180825580915050600190039060005260206000200160009091909190916101000a81548173ffffffffffffffffffffffffffffffffffffffff021916908373ffffffffffffffffffffffffffffffffffffffff16021790555050565b6000808260601b90506040517f3d602d80600a3d3981f3363d3d373d3d3d363d7300000000000000000000000081528160148201527f5af43d82803e903d91602b57fd5bf3000000000000000000000000000000000060288201526037816000f092505050919050565b600073ffffffffffffffffffffffffffffffffffffffff82169050919050565b600061033482610309565b9050919050565b61034481610329565b82525050565b600060208201905061035f600083018461033b565b92915050565b600080fd5b6000819050919050565b61037d8161036a565b811461038857600080fd5b50565b60008135905061039a81610374565b92915050565b6000602082840312156103b6576103b5610365565b5b60006103c48482850161038b565b91505092915050565b7f4e487b7100000000000000000000000000000000000000000000000000000000600052603260045260246000fdfea2646970667358221220dd96a5b9585595f1e8cf593c8e7b46e3d5614bafbe6570fad9993b82582782b464736f6c634300080a0033",
  "immutableReferences": {},
  "source": "pragma solidity >=0.8.10 <0.9.0;\n\nimport \"./Storage.sol\";\nimport \"./CloneFactory.sol\";\n\ncontract StorageFactory is CloneFactory  {\n    address public admin;\n    address public implementation;\n    address[] public clonedContracts;\n\n    event ClonedContract(address _clonedContract);\n\n    constructor(address _implementation){\n        implementation = _implementation;\n        admin = msg.sender;\n    }\n    \n    function createStorage() public {\n        //Create clone of Storage smart contract\n        address clone = createClone(implementation);\n        // Storage(clone).init(msg.sender); fonction pour initialiser le clone \n        emit ClonedContract(clone);\n        clonedContracts.push(clone);\n    }\n\n    function getAddress(uint i) view external returns (address){\n        return clonedContracts[i];\n    }\n}",
  "sourcePath": "/Users/maxencealvarez/Desktop/Blockchain/Test/contracts/StorageFactory.sol",
  "compiler": {
    "name": "solc",
    "version": "0.8.10+commit.fc410830.Emscripten.clang"
  },
  "schemaVersion": "3.4.3",
  "updatedAt": "2021-12-02T15:54:25.344Z",
  "networkType": "ethereum",
  "devdoc": {
    "kind": "dev",
    "methods": {},
    "version": 1
  },
  "userdoc": {
    "kind": "user",
    "methods": {},
    "version": 1
  }
}